:100000000C9450000C9465000C9465000C946500F1
:100010000C9465000C9465000C9465000C946500CC
:100020000C9465000C9465000C9465000C946500BC
:100030000C9465000C9465000C9465000C946500AC
:100040000C9465000C9465000C9465000C9465009C
:100050000C9465000C9465000C9465000C9465008C
:100060000C9465000C9465001F10101010101F1FD9
:100070000000000000001F01010101011F1F00001E
:100080000000001F010101010101011F0101010127
:1000900001011F1010101010100101010101011FBA
:1000A00011241FBECFEFD8E0DEBFCDBF11E0A0E02E
:1000B000B1E0EAE7F6E002C005900D92A033B10787
:1000C000D9F70E9487010C943B030C940000611146
:1000D00002C0289801C0289A9BB19F70282F207FCA
:1000E000922B9BB945E04A95F1F70000299A95E0DB
:1000F0009A95F1F70000299840EF4A95F1F72BB156
:10010000922F9F7040E1849F90011124292B2BB9DD
:1001100095E09A95F1F70000299A45E04A95F1F7A4
:100120000000299890EF9A95F1F7611108C084308A
:1001300030F48FE39FE10197F1F700C000000895CC
:10014000289829982FEF89EF90E021508040904027
:10015000E1F700C000008BB18F7080638BB925E0A0
:100160002A95F1F70000299A85E08A95F1F70000B9
:10017000299890EF9A95F1F78FE19EE40197F1F7B6
:1001800000C0000095E09A95F1F70000299A25E05B
:100190002A95F1F70000299880EF8A95F1F78FE111
:1001A00093E00197F1F700C0000095E09A95F1F710
:1001B0000000299A25E02A95F1F70000299880EFA0
:1001C0008A95F1F78BB18F7080628BB995E09A9523
:1001D000F1F70000299A25E02A95F1F70000299807
:1001E00080EF8A95F1F760E088E20E94670060E0A6
:1001F00088E00E94670060E081E00E94670060E0A4
:100200008CE00E94670060E080E80E94670008952B
:10021000AC01FB01DB019B012B5F3F4F80E38D9322
:10022000A217B307E1F79A01ADECBCEC0E942C03D6
:100230009695879596958795969587959C01220F1B
:10024000331F880F991F880F991F880F991F820FDE
:10025000931F9A01281B390BC901805D81939A0174
:100260000E942C03AC015695479556954795569597
:10027000479541155105B9F608951F93CF93DF9324
:10028000C82F162F60E080E8810F0E946700D0E041
:10029000CC0FDD1FCC0FDD1FCC5BDF4F61E0888111
:1002A0000E94670061E089810E94670060E080EC45
:1002B000810F0E94670061E08A810E94670061E00F
:1002C0008B810E946700DF91CF911F9108951F934A
:1002D000CF93DF93C82F162F60E080E8810F0E9434
:1002E0006700D0E0CC0FDD1FC056DF4F61E0888192
:1002F0000E94670060E080EC810F0E94670061E06F
:1003000089810E946700DF91CF911F910895CF935B
:10031000DF9300D01F92CDB7DEB78FEF8AB984B9D3
:1003200017B888B92A9A0E94A00060E080E40E9471
:10033000670009E910E00F2EF0EAEF2EF0E0FF2E43
:10034000F02DF801849161E00E9467000F5F1F4F5C
:100350000E151F05B1F761E080E00E94670060E0C4
:1003600088E40E94670002E910E00F2EF9E9EF2E01
:10037000F0E0FF2EF02DF801849161E00E9467000B
:100380000F5F1F4F0E151F05B1F761E080E00E945F
:10039000670060E080E50E9467000BE810E00F2E28
:1003A000F2E9EF2EF0E0FF2EF02DF801849161E0EC
:1003B0000E9467000F5F1F4F0E151F05B1F761E028
:1003C00080E00E94670060E088E50E94670004E822
:1003D00010E00F2EFBE8EF2EF0E0FF2EF02DF801DD
:1003E000849161E00E9467000F5F1F4F0E151F058B
:1003F000B1F761E080E00E94670060E080E60E9463
:1004000067000DE710E00F2EF4E8EF2EF0E0FF2E6E
:10041000F02DF801849161E00E9467000F5F1F4F8B
:100420000E151F05B1F761E080E00E94670060E0F3
:1004300088E60E94670006E710E00F2EFDE7EF2E2A
:10044000F0E0FF2EF02DF801849161E00E9467003A
:100450000F5F1F4F0E151F05B1F761E080E00E948E
:10046000670060E080E70E9467000FE610E00F2E53
:10047000F6E7EF2EF0E0FF2EF02DF801849161E019
:100480000E9467000F5F1F4F0E151F05B1F761E057
:1004900080E00E94670060E088E70E94670008E64D
:1004A00010E00F2EFFE6EF2EF0E0FF2EF02DF8010A
:1004B000849161E00E9467000F5F1F4F0E151F05BA
:1004C000B1F761E080E00E94670060E081E00E9497
:1004D000670000E010E00F2EF3E1CF2ED12CF02DBD
:1004E0006894882482F86894992491F86894AA24DE
:1004F000A4F80F2EFCE0BF2EF02DF12C512C772408
:100500007394E72C652C01151105D1F5652D872D08
:100510000E946700BE016F5F7F4F8A2D90E00E94AE
:100520000801672D8A810E943D0163E089810E9454
:100530003D0165E080E30E946701BE016F5F7F4F70
:100540008B2D90E00E94080166E08A810E943D01A7
:1005500068E089810E943D016AE080E30E946701B2
:10056000BE016F5F7F4F8F2D90E00E9408016BE00E
:100570008A810E943D016DE089810E943D0169C030
:10058000652D872D0E946700BE016F5F7F4F892D0B
:1005900090E00E940801672D8A810E943D0163E07E
:1005A00089810E943D0165E081E30E946701BE01EF
:1005B0006F5F7F4F882D90E00E94080166E08A817E
:1005C0000E943D0168E089810E943D016AE081E36B
:1005D0000E946701BE016F5F7F4FC6010E94080144
:1005E0006BE08A810E943D016DE089810E943D019E
:1005F00030C0309906C02E2D012B09F0262D022F78
:1006000010E0FFE727EB39E0F15020403040E1F700
:1006100000C00000019769F7F3944CE3F41202C0A4
:10062000B394F12C8CE3B81202C0A394B12CE8E18E
:10063000AE1202C09394A12CFEE19F1202C08394DB
:10064000912C2CE082125FCF3FEFC31AD30A812C8A
:100650005ACF85E090E0CDCFA29FB001B39FC001FB
:10066000A39F700D811D1124911DB29F700D811DDE
:0A0670001124911D0895F894FFCFA6
:10067A00A5A5202F01024C00207C207C04054C5F9C
:10068A0006055F004C00200307045F0007044C00C6
:10069A000602200307054C0007052003A520A52014
:00000001FF
