S011000052656C6F67696F56332E73726563B9
S11300000C9450000C946D000C946D000C946D00D5
S11300100C948F010C946D000C946D000C946D0085
S11300200C946D000C946D000C946D000C946D0098
S11300300C946D000C946D000C946D000C946D0088
S11300400C946D000C946D000C946D000C946D0078
S11300500C946D000C946D000C946D000C946D0068
S11300600C946D000C946D001F10101010101F1FC5
S11300700000000000001F01010101011F1F00001A
S11300800000001F010101010101011F0101010123
S113009001011F1010101010100101010101011FB6
S11300A011241FBECFEFD8E0DEBFCDBF11E0A0E02A
S11300B0B1E0EEEBF6E002C005900D92A033B1077B
S11300C0D9F721E0A0E3B1E001C01D92A233B20749
S11300D0E1F70E94A9010C945D030C9400006111E6
S11300E002C0289801C0289A9BB19F70282F207FB6
S11300F0922B9BB945E04A95F1F70000299A95E0C7
S11301009A95F1F70000299840EF4A95F1F72BB141
S1130110922F9F7040E1849F90011124292B2BB9C9
S113012095E09A95F1F70000299A45E04A95F1F790
S11301300000299890EF9A95F1F7611108C0843076
S113014030F48FE39FE10197F1F700C000000895B8
S1130150289829982FEF89EF90E021508040904013
S1130160E1F700C000008BB18F7080638BB925E08C
S11301702A95F1F70000299A85E08A95F1F70000A5
S1130180299890EF9A95F1F78FE19EE40197F1F7A2
S113019000C0000095E09A95F1F70000299A25E047
S11301A02A95F1F70000299880EF8A95F1F78FE1FD
S11301B093E00197F1F700C0000095E09A95F1F7FC
S11301C00000299A25E02A95F1F70000299880EF8C
S11301D08A95F1F78BB18F7080628BB995E09A950F
S11301E0F1F70000299A25E02A95F1F700002998F3
S11301F080EF8A95F1F760E088E20E946F0060E08A
S113020088E00E946F0060E081E00E946F0060E07F
S11302108CE00E946F0060E080E80E946F00089507
S1130220AC01FB01DB019B012B5F3F4F80E38D930E
S1130230A217B307E1F79A01ADECBCEC0E944E03A0
S11302409695879596958795969587959C01220F07
S1130250331F880F991F880F991F880F991F820FCA
S1130260931F9A01281B390BC901805D81939A0160
S11302700E944E03AC015695479556954795569561
S1130280479541155105B9F608951F93CF93DF9310
S1130290C82F162F60E080E8810F0E946F00D0E025
S11302A0CC0FDD1FCC0FDD1FCC5BDF4F61E08881FD
S11302B00E946F0061E089810E946F0060E080EC21
S11302C0810F0E946F0061E08A810E946F0061E0EB
S11302D08B810E946F00DF91CF911F9108951F932E
S11302E0CF93DF93C82F162F60E080E8810F0E9420
S11302F06F00D0E0CC0FDD1FC056DF4F61E0888176
S11303000E946F0060E080EC810F0E946F0061E04A
S113031089810E946F00DF91CF911F9108951F92F0
S11303200F920FB60F9211248F939F9380913001F7
S113033090913101892B31F481E090E09093310167
S1130340809330019F918F910F900FBE0F901F905B
S11303501895CF93DF9300D01F92CDB7DEB78FEF00
S11303608AB984B917B888B982E08093680081E0BB
S113037080936C0078942A9A0E94A80060E080E43C
S11303800E946F0009E910E00F2EF0EAEF2EF0E072
S1130390FF2EF02DF801849161E00E946F000F5F41
S11303A01F4F0E151F05B1F761E080E00E946F003A
S11303B060E088E40E946F0002E910E00F2EF9E982
S11303C0EF2EF0E0FF2EF02DF801849161E00E9401
S11303D06F000F5F1F4F0E151F05B1F761E080E03E
S11303E00E946F0060E080E50E946F000BE810E05F
S11303F00F2EF2E9EF2EF0E0FF2EF02DF80184919C
S113040061E00E946F000F5F1F4F0E151F05B1F7CB
S113041061E080E00E946F0060E088E50E946F0068
S113042004E810E00F2EFBE8EF2EF0E0FF2EF02D95
S1130430F801849161E00E946F000F5F1F4F0E1559
S11304401F05B1F761E080E00E946F0060E080E684
S11304500E946F000DE710E00F2EF4E8EF2EF0E09D
S1130460FF2EF02DF801849161E00E946F000F5F70
S11304701F4F0E151F05B1F761E080E00E946F0069
S113048060E088E60E946F0006E710E00F2EFDE7AB
S1130490EF2EF0E0FF2EF02DF801849161E00E9430
S11304A06F000F5F1F4F0E151F05B1F761E080E06D
S11304B00E946F0060E080E70E946F000FE610E08A
S11304C00F2EF6E7EF2EF0E0FF2EF02DF8018491C9
S11304D061E00E946F000F5F1F4F0E151F05B1F7FB
S11304E061E080E00E946F0060E088E70E946F0096
S11304F008E610E00F2EFFE6EF2EF0E0FF2EF02DC1
S1130500F801849161E00E946F000F5F1F4F0E1588
S11305101F05B1F761E080E00E946F0060E081E0B8
S11305200E946F00A12CB12C0F2EF3E18F2E912C81
S1130530F02D6894DD24D2F86894EE24E1F86894F0
S1130540FF24F4F80CE010E0A114B104D1F560E04C
S113055081E00E946F00BE016F5F7F4F8F2D90E09E
S11305600E94100161E08A810E94450163E0898153
S11305700E94450165E080E30E946F01BE016F5F48
S11305807F4F802F90E00E94100166E08A810E94D4
S1130590450168E089810E9445016AE080E30E9488
S11305A06F01BE016F5F7F4F812F90E00E941001A9
S11305B06BE08A810E9445016DE089810E944501BA
S11305C038C060E081E00E946F00BE016F5F7F4F22
S11305D08E2D90E00E94100161E08A810E94450105
S11305E063E089810E94450165E081E30E946F0117
S11305F0BE016F5F7F4F8D2D90E00E94100166E079
S11306008A810E94450168E089810E9445016AE06F
S113061081E30E946F01BE016F5F7F4FC4010E949E
S113062010016BE08A810E9445016DE089810E947E
S11306304501FFEF23ED80E3F15020408040E1F7D6
S113064000C000008091300190913101019759F46C
S1130650109231011092300181E0AA94AB2809F480
S113066080E0A82EB12C1F5F1C3311F40F5F10E043
S11306700C3311F4F39400E0E8E1FE1202C0E394B9
S1130680F12CFEE1EF1202C0D394E12C2CE0D21243
S11306905BCF8FEF881A980AD12C56CFA29FB00156
S11306A0B39FC001A39F700D811D1124911DB29FA2
S11106B0700D811D1124911D0895F894FFCF43
S11306BEA5A5202F01024C00207C207C04054C5F54
S11306CE06055F004C00200307045F0007044C007E
S11306DE0602200307054C0007052003A520A520CC
S9030000FC
