S013000043616C63756C61646F72612E73726563B6
S11300000C9460000C947D000C947D000C947D0095
S11300100C947D000C947D000C947D000C947D0068
S11300200C947D000C947D000C947D000C947D0058
S11300300C947D000C947D000C947D000C947D0048
S11300400C947D000C947D000C947D000C947D0038
S11300500C947D000C947D000C947D000C947D0028
S11300600C947D000C947D00770465048904890454
S1130070890489048904DE01F901140289048904CC
S11300808904890489048904890489048904890404
S113009074012F0289048904890489048904890468
S11300A08904A80189044304C301890489048904D7
S11300B08D0196033803F203E70240027302A6029D
S11300C011241FBECFEFD8E0DEBFCDBF11E0A0E00A
S11300D0B1E0E2E5FEE002C005900D92A634B1075E
S11300E0D9F721E0A6E4B1E001C01D92AF35B20713
S11300F0E1F70E949C050C9427070C940000611101
S113010002C0459801C0459A98B1907F282F229546
S11301102F70922B98B995E09A95F1F70000449AC4
S113012095E09A95F1F70000449890EF9A95F1F7CD
S113013098B1907F282F2F70922B98B995E09A95BB
S1130140F1F70000449A95E09A95F1F7000044987D
S113015090EF9A95F1F7611108C0843030F48FE381
S11301609FE10197F1F700C0000008954598449875
S11301702FEF89EF90E0215080409040E1F700C0DC
S1130180000088B1807F836088B925E02A95F1F763
S11301900000449A85E08A95F1F70000449890EFB6
S11301A09A95F1F78FE19EE40197F1F700C0000002
S11301B095E09A95F1F70000449A25E02A95F1F725
S11301C00000449880EF8A95F1F78FE193E001975E
S11301D0F1F700C0000095E09A95F1F70000449A09
S11301E025E02A95F1F70000449880EF8A95F1F70D
S11301F088B1807F826088B995E09A95F1F7000014
S1130200449A25E02A95F1F70000449880EF8A95F6
S1130210F1F760E088E20E947F0060E088E00E94DD
S11302207F0060E081E00E947F0060E08CE00E943B
S11302307F0060E080E80E947F000895CF93DF9301
S1130240EC018881882339F0219661E00E947F00C7
S113025089918111FACFDF91CF910895DA012115A7
S1130260310531F021503109FA01E20FF31F1082F8
S11302702115310559F021503109FD01E20FF31F19
S113028060FD02C050E301C051E350839695879509
S113029077956795611571058105910549F7CD013C
S11302A0820F931F0895CF92DF92EF92FF920F93E4
S11302B01F93CF93DF936130710509F02AC3209116
S11302C00001309101012150310930930101209343
S11302D0000190E0FC01F097E532F10508F019C344
S11302E0EC5CFF4F0C940D0760E08DE80E947F00EA
S11302F061E08FE20E947F0081E090E090934901E9
S113030080934801909347018093460188E090E0F0
S113031090930101809300012EC360E08DE80E9458
S11303207F0061E08AE20E947F0081E090E0909388
S113033049018093480182E090E0909347018093C3
S1130340460188E090E0909301018093000113C37B
S113035060E08DE80E947F0061E08DE20E947F00F2
S113036081E090E0909349018093480183E090E01C
S1130370909347018093460188E090E090930101B7
S113038080930001F8C260E08DE80E947F0061E084
S11303908BE20E947F0081E090E09093490180937A
S11303A0480184E090E0909347018093460188E0FF
S11303B090E09093010180930001DDC260E08DE83C
S11303C00E947F0061E085E40E947F0081E090E06C
S11303D0909349018093480185E090E09093470110
S11303E08093460188E090E090930101809300019E
S11303F0C2C260E08DE80E947F0061E08FE40E9449
S11304007F0081E090E0909349018093480186E069
S113041090E0909347018093460188E090E09093A8
S1130420010180930001A7C260E08DE80E947F0073
S113043061E088E50E947F0081E090E090934901AB
S11304408093480187E090E09093470180934601B0
S113045088E090E090930101809300018CC260E0F9
S113046081E00E947F00E0914601F09147013197BD
S1130470E730F10508F04DC2E75AFF4F0C940D0721
S1130480A4E1B1E0CCE0D1E0E2E0F1E04CE151E004
S113049060E371E38D9190E0C097299130E020539F
S11304A031098130910529F42130310511F470832B
S11304B001C060833196A417B50761F79093540186
S11304C080935301309356012093550188E090E0C6
S11304D090934B0180934A0183E090E0909349010B
S11304E0809348016EC2A4E1B1E0CCE0D1E0E2E047
S11304F0F1E04CE151E071E360E38D9190E0C0974D
S1130500299130E0205331098130910519F02130CF
S1130510310511F4708301C060833196A417B507C7
S113052061F79093540180935301309356012093C3
S1130530550188E090E090934B0180934A0183E059
S113054090E090934901809348013BC2A4E1B1E05B
S1130550CCE0D1E0E2E0F1E06CE171E001E010E038
S1130560D12CE12C0F2EF0E3CF2EF02D0F2EF1E342
S1130570FF2EF02D2D9130E020533109899190E028
S1130580C097402F512F2130310511F04D2D5E2D94
S11305908417950711F0F08201C0C0823196A61726
S11305A0B70741F7309354012093530190935601B8
S11305B08093550188E090E090934B0180934A0129
S11305C083E090E09093490180934801FAC1E4E10B
S11305D0F1E0CCE2D1E0ACE0B1E00CE111E040E0CC
S11305E050E060E070E02191899190E0C09730E0A4
S11305F020533109289F7001299FF00C389FF00C7B
S113060011246E0D7F1D2D9130E020533109289F58
S11306107001299FF00C389FF00C11244E0D5F1DC2
S1130620E017F10701F7709354016093530150935D
S113063056014093550188E090E090934B018093DC
S11306404A01640F751F7093510160935001072E86
S1130650000C880B990B28E030E047E551E00E943C
S11306602E0184E090E09093490180934801A9C150
S1130670E4E1F1E06CE271E00F2EFCE0CF2EF1E05A
S1130680DF2EF02D0CE111E040E050E0A0E0B0E0FE
S11306902191EB018991BE0190E0C09730E0205395
S11306A03109289F7001299FF00C389FF00C112408
S11306B0AE0DBF1DE60129916E0130E020533109D2
S11306C0289F7001299FF00C389FF00C11244E0DC7
S11306D05F1D0E171F07E1F6B0935401A093530159
S11306E0509356014093550188E090E090934B015C
S11306F080934A01A49FB001A59F700DB49F700D13
S113070011247093510160935001072E000C880B43
S1130710990B28E030E047E551E00E942E0184E087
S113072090E090934901809348014BC1E4E1F1E0EA
S1130730CCE2D1E0ACE0B1E00CE111E060E070E0CB
S113074080E090E04191299130E02053310950E05C
S113075040535109429F7001439FF00C529FF00C8B
S113076011248E0D9F1D4D9150E040535109429F1D
S11307707001439FF00C529FF00C11246E0D7F1DED
S1130780E017F107F9F690935401809353017093A5
S113079056016093550128E030E030934B012093DB
S11307A04A010E94F906072E000C880B990B0E943F
S11307B048060E94AC060E94100670935101609393
S11307C05001072E000C880B990B28E030E047E518
S11307D051E00E942E0184E090E0909349018093BF
S11307E04801EFC0E4E1F1E0CCE2D1E0ACE0B1E0FB
S11307F00CE111E040E050E060E070E0219189916B
S113080090E0C09730E020533109289F7001299F60
S1130810F00C389FF00C11246E0D7F1D2D9130E0EB
S113082020533109289F7001299FF00C389FF00C48
S113083011244E0D5F1D0E171F0701F7709354010D
S113084060935301509356014093550188E090E022
S113085090934B0180934A01641B750B7093510173
S113086060935001072E000C880B990B28E030E0B0
S113087047E551E00E942E0184E090E09093490105
S1130880809348019EC060E081E00E947F00E4E123
S1130890F1E0CCE0D1E0A2E0B1E02CE131E080E392
S11308A0819389938D93E217F307D1F788E090E061
S11308B090934B0180934A01109249011092480190
S11308C090930101809300012AC080914801909186
S11308D04901892B31F4F901EC5EFE4F81E38083F9
S11308E01EC0F901E45FFE4F81E380833EC0809126
S11308F0480190914901892B31F4F901EC5EFE4FD6
S113090080E380830CC0F901E45FFE4F80E38083C1
S11309102CC08091480190914901892B31F560E008
S113092080E80E947F00C4E1D1E061E088810E94F8
S11309307F0061E089810E947F0061E08A810E94DA
S11309407F0061E08B810E947F0061E08C810E94C6
S11309507F0061E08D810E947F0061E08E810E94B2
S11309607F0061E08F810E947F0080914801909117
S11309704901019731F560E080EC0E947F00CCE0F2
S1130980D1E061E088810E947F0061E089810E945A
S11309907F0061E08A810E947F0061E08B810E9478
S11309A07F0061E08C810E947F0061E08D810E9464
S11309B07F0061E08E810E947F0061E08F810E9450
S11309C07F008091480190914901039709F052C03A
S11309D060E080E80E947F0061E082E50E947F0081
S11309E061E085E60E947F0061E083E70E947F006A
S11309F061E085E70E947F0061E08CE60E947F0051
S1130A0061E084E70E947F0061E081E60E947F004C
S1130A1061E084E60E947F0061E08FE60E947F002F
S1130A2061E08AE30E947F0060E080EC0E947F0026
S1130A30C2E0D1E061E088810E947F0061E08981A9
S1130A400E947F0061E08A810E947F0061E08B81C7
S1130A500E947F0061E08C810E947F0061E08D81B3
S1130A600E947F0061E08E810E947F0061E08F819F
S1130A700E947F008091480190914901049709F0F8
S1130A8052C060E080E80E947F0061E082E50E943D
S1130A907F0061E085E60E947F0061E083E70E94B9
S1130AA07F0061E085E70E947F0061E08CE60E94A0
S1130AB07F0061E084E70E947F0061E081E60E949C
S1130AC07F0061E084E60E947F0061E08FE60E947F
S1130AD07F0061E08AE30E947F0060E080EC0E9476
S1130AE07F00C7E5D1E061E088810E947F0061E07A
S1130AF089810E947F0061E08A810E947F0061E019
S1130B008B810E947F0061E08C810E947F0061E004
S1130B108D810E947F0061E08E810E947F0061E0F0
S1130B208F810E947F00DF91CF911F910F91FF90E1
S1130B30EF90DF90CF9008958FEF8AB987B914B8FA
S1130B4085B90E94B60084E391E00E941E012FEF54
S1130B5087E893E1215080409040E1F700C0000015
S1130B6060E081E00E947F0060E080E80E947F00F6
S1130B7060E070E0809152010E94530110924F0195
S1130B8010924E0180E090E0FC01EE5BFE4F80810C
S1130B908BB910924D0110924C0180E090E023B18A
S1130BA030E0082E02C0359527950A94E2F720FD1F
S1130BB01DC020914E0130914F01220F331F220F8F
S1130BC0331F245E3E4FF901E80FF91F80818093A3
S1130BD0520161E070E00E9453012FEF89E698E131
S1130BE0215080409040E1F700C0000080914C010A
S1130BF090914D01019690934D0180934C01843066
S1130C0091056CF280914E0190914F010196909361
S1130C104F0180934E01843091050CF4B5CFAECFD3
S1130C200E9417066894B1110C94A60608950E94B8
S1130C308B0688F09F5798F0B92F9927B751B0F0D9
S1130C40E1F0660F771F881F991F1AF0BA95C9F74C
S1130C5014C0B13091F00E94A506B1E008950C943F
S1130C60A506672F782F8827B85F39F0B93FCCF3F2
S1130C70869577956795B395D9F73EF490958095C9
S1130C80709561957F4F8F4F9F4F0895E89409C0E9
S1130C9097FB3EF490958095709561957F4F8F4FAB
S1130CA09F4F9923A9F0F92F96E9BB279395F695C1
S1130CB0879577956795B795F111F8CFFAF4BB0F3F
S1130CC011F460FF1BC06F5F7F4F8F4F9F4F16C0A3
S1130CD0882311F096E911C0772321F09EE8872F2D
S1130CE0762F05C0662371F096E8862F70E060E0E9
S1130CF02AF09A95660F771F881FDAF7880F969562
S1130D00879597F9089557FD9058440F551F59F04A
S1130D105F3F71F04795880F97FB991F61F09F3FE4
S1130D2079F087950895121613061406551FF2CF0D
S1130D304695F1DF08C0161617061806991FF1CF5D
S1130D4086957105610508940895E894BB27662784
S1130D507727CB0197F908950E948B06E8F09E3718
S1130D60E8F09639B8F49E3848F4672F782F88272E
S1130D70985FF9CF86957795679593959539D0F3D4
S1130D80B62FB1706B0F711D811D20F48795779577
S1130D90679593950C94D0060C94EB060C94A606D8
S1130DA0882371F4772321F09850872B762F07C07E
S1130DB0662311F499270DC09051862B70E060E0F2
S1130DC02AF09A95660F771F881FDAF7880F969591
S1130DD0879597F908959F3F31F0915020F48795B6
S1130DE077956795B795880F911D9695879597F98F
S1130DF0089597FB072E16F4009407D077FD09D0C9
S1130E000E94130707FC05D03EF4909581959F4FEF
S1130E100895709561957F4F0895EE0FFF1F05901B
S1130E20F491E02D0994AA1BBB1B51E107C0AA1F32
S1130E30BB1FA617B70710F0A61BB70B881F991F77
S1130E405A95A9F780959095BC01CD010895F89421
S1050E50FFCFCE
S1130E520800303030303030303000003030303044
S1130E623030303030303030303030303738394450
S1130E72343536543132334D4F30455038343236AE
S1130E8238343231506169766F7827732043616C4C
S1090E926300FEFDFBF706
S9030000FC
